:020000040800F2
:10000000A85B002045020008BD4500087D3D0008B2
:10001000F9440008D9230008318F000800000000CF
:10002000000000000000000000000000397D000812
:10003000412E000800000000C70200088D8500085E
:100040005F0200085F0200085F0200085F0200080C
:100050005F0200085F0200085F0200085F020008FC
:100060005F0200085F0200085F0200085F020008EC
:100070005F0200085F0200085F0200085F020008DC
:100080005F0200085F0200085F0200085F020008CC
:10009000518E00085F0200085F0200085F0200083E
:1000A0005F0200085F0200085F0200085F020008AC
:1000B000198600085F0200083D8600085F020008FC
:1000C0005F0200085F0200085F0200085F0200088C
:1000D0005F0200085D8A0008718A00085F0200085C
:1000E0005F0200085F020008518D00085F020008EF
:1000F0005F0200085F0200085F0200085F0200085C
:100100005F020008356900085F0200085F0200080E
:100110005F0200085F0200085F0200085F0200083B
:100120005F0200085F0200085F0200085F0200082B
:1001300000F002F800F076F80AA090E8000C824483
:100140008344AAF10107DA4501D100F06BF8AFF260
:10015000090EBAE80F0013F0010F18BFFB1A43F0A5
:100160000103184720CC000040CC00000A444FF0A7
:10017000000C10F8013B13F0070408BF10F8014B06
:100180001D1108BF10F8015B641E05D010F8016B4B
:10019000641E01F8016BF9D113F0080F1EBF10F8AF
:1001A000014BAD1C0C1B09D16D1E58BF01F801CBD2
:1001B000FAD505E014F8016B01F8016B6D1EF9D555
:1001C0009142D6D37047000000230024002500266A
:1001D000103A28BF78C1FBD8520728BF30C148BFAA
:1001E0000B60704766290CF0C181642900F05287CA
:1001F000752900F04F87782900F08887632901F07E
:100200005483732901F05983002070471FB501F012
:1002100093FB0400002000210BF014FFE0601FBDE1
:1002200010B510BD01F088FC1146FFF7EFFF09F093
:100230004DFC01F0A6FC03B4FFF7F2FF03BC09F08C
:100240004AFB00000948804709480047FEE7FEE7EF
:10025000FEE7FEE7FEE7FEE7FEE7FEE7FEE7FEE776
:1002600004480549054A064B70470000C985000847
:1002700031010008A8550020A85B0020A8570020E5
:10028000A8570020EFF3108072B6704780F31088F3
:1002900070471D484FF0FF010170002080F309886E
:1002A0001A48012101701A484FF08051016062B66E
:1002B000FEE717484FF080510160704714484FF037
:1002C00080510160704772B6EFF3098028B1203881
:1002D00080E8F00F0F490968086000B50E488047B4
:1002E0005DF804EB0D480E490A78027009480D4983
:1002F0000A680260106890E8F00F203080F30988E7
:100300004EF0040E62B6704722ED00E01B000020A4
:1003100004ED00E034000020B15400081800002073
:10032000190000203C0000202DE9F04706460F464A
:100330004FF00008002405E0D84850F8340000B918
:1003400002E0641C102CF7DB00BF102C1EDB00BF8A
:1003500000F024FA4FF47A71B0FBF1F201FB1209BC
:1003600000F01CFA4FF47A71B0FBF1FA4A4651469C
:10037000CBA000F019FECEA000F016FED3A000F036
:1003800013FE00BF4FF0FF30BDE8F087B900D04842
:1003900009F0B2FD8046B8F1000F1DD100BF00F09A
:1003A000FDF94FF47A71B0FBF1F201FB120900F094
:1003B000F5F94FF47A71B0FBF1FA4A465146B8A00C
:1003C00000F0F2FDC3A000F0EFFDC0A000F0ECFDD6
:1003D00000BF4FF0FF30D7E7B9B2404604F094FBBE
:1003E00005463DB900203060404609F069FC4FF0F9
:1003F000FF30C9E73560A94840F8345000EBC4002D
:10040000C0F804800020BFE72DE9F04105460E4604
:1004100000BF002D1ED100BF00F0C0F94FF47A716B
:10042000B0FBF1F201FB120700F0B8F94FF47A715A
:10043000B0FBF1F83A46414699A000F0B5FD5A22CA
:10044000AFA1B3A000F0B0FDA0A000F0ADFD00BFD3
:1004500000BFFEE700BF3146284604F07DFC04469D
:1004600014B90020BDE8F0811E2C01D10120F9E76C
:1004700000BF00F093F94FF47A71B0FBF1F201FB89
:10048000120700F08BF94FF47A71B0FBF1F83A469D
:10049000414683A000F088FD2146A4A000F084FD21
:1004A0008AA000F081FD00BF4FF0FF30DAE72DE9B0
:1004B000F84305460E46144600BF002D1ED100BF6E
:1004C00000F06CF94FF47A71B0FBF1F201FB120706
:1004D00000F064F94FF47A71B0FBF1F83A46414606
:1004E0006FA000F061FD872285A189A000F05CFD6E
:1004F00076A000F059FD00BF00BFFEE700BF204618
:1005000000F07CF904466A462146284604F0B4FB14
:1005100030609DF8000010B90020BDE8F8839DF818
:1005200000000A2801D10120F7E700BF00F036F9EA
:100530004FF47A71B0FBF1F201FB120700F02EF9D3
:100540004FF47A71B0FBF1F83A46414654A000F0FE
:100550002BFD9DF8001079A000F026FD5BA000F0B7
:1005600023FD00BF4FF0FF30D7E7F8B50546002464
:1005700006E04A4850F83400A84200D102E0641C6A
:10058000102CF6DB00BF102C1EDB00BF00F006F9BC
:100590004FF47A71B0FBF1F201FB120600F0FEF8A5
:1005A0004FF47A71B0FBF1F7324639463CA000F0C7
:1005B000FBFC294665A000F0F7FC44A000F0F4FC29
:1005C00000BF4FF0FF30F8BD6A460121284604F015
:1005D000DDFA9DF80000F8B100BF00F0DFF84FF43D
:1005E0007A71B0FBF1F201FB120600F0D7F84FF47C
:1005F0007A71B0FBF1F73246394629A000F0D4FCFD
:100600009DF8001059A000F0CFFC30A000F0CCFC09
:1006100000BF4FF0FF30D6E7204800EBC400406831
:10062000F8B900BF00BF00F0B9F84FF47A71B0FB21
:10063000F1F201FB120600F0B1F84FF47A71B0FB51
:10064000F1F73246394616A000F0AEFCD1222CA1BB
:100650004CA000F0A9FC1DA000F0A6FC00BF00BF4C
:10066000FEE70E4901EBC401486809F029FB0020B0
:100670000A4901EBC4014860084941F8340000BF51
:10068000A1E7002007E00021044A42F8301002EB05
:10069000C0025160401C1028F5DB7047C854002090
:1006A0005B453A2025642E253033645D2000000030
:1006B0006D73676765743A206E6F206D6F72652089
:1006C0006D736720717565656E0000000D0A00008E
:1006D00084C800086D73676765743A206D616C6C3F
:1006E0006F6320717565656E206572722E6E6F2066
:1006F000656E6F756768206D616C6C6F63000000DC
:100700002E2E5C7372635C6D73675F712E630000E5
:1007100025733A256420617373657274206D736765
:1007200069646661696C65640D0A00006D736773C6
:100730006E643A2065727220256400006D736772E2
:1007400063763A2065727220256400006D736766D7
:100750007265653A20657272206E6F206D617463F8
:1007600068206D73675F7120257800006D73676680
:100770007265653A2066726565206572722025642F
:100780000000000025733A2564206173736572745C
:1007900020306661696C65640D0A0000E6480068F7
:1007A00070472DE9F04104460F4600BF002C1ED1D2
:1007B00000BFFFF7F3FF4FF47A71B0FBF1F201FBDA
:1007C0001205FFF7EBFF4FF47A71B0FBF1F62A4602
:1007D0003146DAA000F0E8FB0922DCA1DFA000F03E
:1007E000E3FBE5A000F0E0FB00BF00BFFEE700BFB9
:1007F00004F12C000AF030FCBDE8F081014609B993
:10080000002070470A2900D20A21642048434FF48F
:100810007A72B0FBF2F10846F3E72DE9FF4706468E
:100820000F46154698463046FFF7E8FF0646F5B9ED
:1008300000BFFFF7B3FF4FF47A71B0FBF1F201FB99
:100840001209FFF7ABFF4FF47A71B0FBF1FA4A4699
:100850005146BAA000F0A8FBC8A000F0A5FBC6A0B6
:1008600000F0A2FB00BF002004B0BDE8F08777B124
:1008700003A8C7A10022AFF2D503CDE90021029061
:1008800002223146304604F0C3FE04460DE003A8C0
:10089000BFA10022AFF2F503CDE9002102900122B1
:1008A0003146304604F0B4FE04469DF80C00D8B141
:1008B000002400BFFFF772FF4FF47A71B0FBF1F232
:1008C00001FB1209FFF76AFF4FF47A71B0FBF1FAEE
:1008D0004A46514699A000F067FBAEA000F064FBC9
:1008E000A5A000F061FB00BF4246294604F12C00A0
:1008F00009F06EF82046B7E72DE9F0410446254699
:10090000EDB900BFFFF74AFF4FF47A71B0FBF1F287
:1009100001FB1206FFF742FF4FF47A71B0FBF1F7CB
:100920003246394685A000F03FFB9FA000F03CFB1B
:1009300091A000F039FB00BF0020BDE8F08195F8E0
:100940002500032801D10120F7E70020F5E72DE974
:10095000F84306460C463546EDB900BFFFF71EFFCB
:100960004FF47A71B0FBF1F201FB1208FFF716FFAA
:100970004FF47A71B0FBF1F9424649466FA000F09E
:1009800013FB8FA000F010FB7BA000F00DFB00BF5D
:100990000020BDE8F8832046FFF730FF04463046CC
:1009A000FFF7AAFF08B10120F3E7AC61EC616946EB
:1009B000284604F0A9FE0746012F04D19DF8000047
:1009C00008B90020E5E70020E3E7F8B50446ECB9F4
:1009D00000BFFFF7E3FE4FF47A71B0FBF1F201FBC9
:1009E0001205FFF7DBFE4FF47A71B0FBF1F62A46F1
:1009F000314652A000F0D8FA76A000F0D5FA5EA0F9
:100A000000F0D2FA00BF4FF0FF30F8BD6946204633
:100A100004F07AFE0746BDF8000008B90020F4E7AC
:100A20004FF0FF30F1E7F8B504462546E5B900BFC1
:100A3000FFF7B4FE4FF47A71B0FBF1F201FB12063E
:100A4000FFF7ACFE4FF47A71B0FBF1F7324639464E
:100A50003AA000F0A9FA64A000F0A6FA46A000F0BF
:100A6000A3FA00BF0020F8BD2046FFF745FF38B1CC
:100A70006B4600221146284604F078FE0120F2E77A
:100A80006B4600221146284604F070FE0020EAE77B
:100A90002DE9F843044626466946304604F0FCFD3D
:100AA0000546012D05D19DF8000010B90020BDE8D4
:100AB000F88300BFFFF772FE4FF47A71B0FBF1F2DA
:100AC00001FB1207FFF76AFE4FF47A71B0FBF1F8F1
:100AD0003A46414619A000F067FA9DF8001047A079
:100AE00000F062FA24A000F05FFA00BF4FF0FF3080
:100AF000DDE770B5044600254548007830B14FF475
:100B00007A7104FB01F008F025FF70BD0A2C00D2B9
:100B10000A24B4F57A7F07D94FF47A70B4FBF0F564
:100B2000B4FBF0F100FB1144A3B2EAB20021084685
:100B300004F0EEFC00BFE8E7740000205B453A20BB
:100B400025642E253033645D200000002E2E5C735A
:100B500072635C74696D65722E63000025733A25BB
:100B600064206173736572742070746D726661695C
:100B70006C65640D0A0000000D0A00007365747551
:100B8000705F74696D657220657272206172670AA8
:100B90000000000073657475705F74696D65722084
:100BA0006572720A0000000074696D65725F70659D
:100BB0006E64696E6720746D722065727200000049
:100BC0006D6F645F74696D657220746D72206572FB
:100BD000720000006164645F74696D657220746DF9
:100BE000722065727200000064656C5F74696D65E7
:100BF0007220746D722065727200000074696D65F8
:100C0000725F66726565206572722025640000005F
:100C10001600002070B5002004F008F90446D4B98D
:100C200000BFFFF7BBFD4FF47A71B0FBF1F201FB9F
:100C30001205FFF7B3FD4FF47A71B0FBF1F62A46C7
:100C4000314675A000F0B0F977A000F0ADF97CA0B6
:100C500000F0AAF900BF204670BDF8B5044614B9EB
:100C60004FF0FF30F8BD6A460021204604F066F9D7
:100C70009DF8000008B90020F4E700BFFFF78EFDE3
:100C80004FF47A71B0FBF1F201FB1205FFF786FD1C
:100C90004FF47A71B0FBF1F62A4631465EA000F0BF
:100CA00083F99DF8001067A000F07EF964A000F0C1
:100CB0007BF900BF4FF0FF30D4E72DE9F84304463D
:100CC0000D46F4B900BFFFF769FD4FF47A71B0FB30
:100CD000F1F201FB1206FFF761FD4FF47A71B0FBF0
:100CE000F1F7324639464CA000F05EF95BA000F007
:100CF0005BF953A000F058F900BF4FF0FF30BDE89A
:100D0000F8832846FFF77AFD80466A46414620462A
:100D100004F014F99DF8000008B90020EFE79DF8F1
:100D200000000A2801D10120E9E74FF0FF30E6E793
:100D30002DE9F0410546284604F05EF90446DCB191
:100D400000BFFFF72BFD4FF47A71B0FBF1F201FB0E
:100D50001206FFF723FD4FF47A71B0FBF1F732462C
:100D600039462DA000F020F9214643A000F01CF9DF
:100D700033A000F019F900BFBDE8F08138B5044692
:100D80006A460121204604F075F838BDF8B50446DE
:100D9000DCB900BFFFF702FD4FF47A71B0FBF1F24E
:100DA00001FB1205FFF7FAFC4FF47A71B0FBF1F684
:100DB0002A46314618A000F0F7F833A000F0F4F806
:100DC0001FA000F0F1F800BFF8BD6A4600212046E0
:100DD00004F03BF99DF80000E0B100BFFFF7DEFC36
:100DE0004FF47A71B0FBF1F201FB1205FFF7D6FC6C
:100DF0004FF47A71B0FBF1F62A46314606A000F0B6
:100E0000D3F89DF8001026A000F0CEF80CA000F05A
:100E1000CBF800BF00BFD7E75B453A2025642E25FD
:100E20003033645D20000000696E69745F7761692A
:100E30007471756575655F686561642065727200BF
:100E40000D0A00006164645F776169745F717565A4
:100E50007565206572723A25640A000077616974CD
:100E60005F6576656E745F74696D656F7574207704
:100E7000712065727200000077616B655F7570208C
:100E80006572722025640000636C6561725F776132
:100E900069745F6576656E74207771206572720083
:100EA000636C6561725F776169745F6576656E74A6
:100EB000206572722025640053EA020C00F06980FC
:100EC0002DE9F04B4FF00006002B1FBFB3FA83F55E
:100ED00003FA05F424FA05F65E4012BF1643B2FA8F
:100EE00082F502FA05F4C5F120051EBF22FA05FCC1
:100EF00044EA0C04203556EA044C4FEA144418BF67
:100F0000641C4FF000084FF00009904271EB030C95
:100F100039D3002919BFB1FA81F701FA07F6B0FAFF
:100F200080F700FA07F6C7F120071EBF20FA07FC7A
:100F300046EA0C062037B6FBF4FCA7EB0507103F8A
:100F400007F01F0BCBF120060CFA0BFB2CFA06F670
:100F500044BFB3460026202FA4BF5E464FF0000BCF
:100F60005BEA060C08BF4FF0010B19EB0B09ABFB5A
:100F7000027C48EB0608C01B06FB02CC0BFB03CC33
:100F800071EB0C01C1E70B46024641464846BDE8FD
:100F9000F08B13B54FF000004FF00001AFF300806D
:100FA000BDE81C40704700000FB4044910B503AA07
:100FB000029800F087FC10BC5DF814FBE4000020F0
:100FC0000FB41CB50C0007AA009001D02044401EAD
:100FD000074B7B4469460190069800F03CFC002CCE
:100FE00003D06946002000F049FC1CBC5DF814FBEE
:100FF000B108000070B5044685690068C10601D5D6
:10100000302600E02026C00707D070BDD4E90121BA
:1010100030469047206A401C20626D1EF6D570BD98
:1010200070B5044685690078C00707D170BDD4E962
:10103000012120209047206A401C20626D1EF6D5B9
:1010400070BD70B50C460546012A05D0287880068B
:1010500000D5EA69002302E0012305E05B1C93420E
:1010600002D2E05C0028F9D1A869E618C01AA8618C
:10107000286A184428622846FFF7BCFF04E0D5E937
:10108000012114F8010B9047B442F8D32846FFF72A
:10109000C7FF70BD2DE9F041064600241068752990
:1010A000314616A510D0AFF30080002802DA404286
:1010B00013A507E031688A0701D512A502E04907A8
:1010C00004D511A5012401E0AFF3008000210A221C
:1010D00006F1240709E0B0FBF2FCB0FBF2F302FBDF
:1010E0001C00303078541846491C0028F3D12346A0
:1010F0002A463046BDE8F04100F041B9000000004A
:101100002D0000002B0000002000000070B50446F8
:101110000D4621461068AFF300802188090502D5ED
:101120000F4A7A4402E00E4A7A440E32002104F15A
:10113000240305E000F00F060009965D5E54491C8B
:101140000028F7D120780023000704D5702D02D0A5
:1011500009B1022311322046BDE8704000F00FB9FA
:1011600065B700002DE9F05F894604464FF0000A9C
:10117000DFF874B1FB44C0F820A02046E16888473E
:10118000002874D0252806D0D4E901219047206A90
:10119000401C2062F1E700265F462046E168884750
:1011A0002028054607DB312D05D2781910F8200CD0
:1011B00008B10643F1E7B00701D526F00406C4F8EC
:1011C0001CA00027C4F818A02A2D09D0284608F032
:1011D0007BFB38B304EB8708303DC8F8185019E0A2
:1011E00059F8041B204604EB87029161E1688847A7
:1011F000012F054618D1E069002820DA26F02006E4
:101200001DE0D8F8180000EB800005EB40003038F6
:10121000C8F818002046E1688847054608F054FBE6
:101220000028EED1012F0AD02E2D08D12046E168EA
:1012300088477F1C0546022F46F02006C4DBA069C4
:10124000002803DA404246F00106A061F00701D011
:1012500026F010066C2D0BD0682D09D04C2D39D0FE
:101260006A2D35D0742D35D07A2D33D016E038E084
:10127000E1682F4620468847B842054609D16C2FC1
:1012800026D04FF48060E168064320468847054633
:1012900004E06C2F1AD04FF4807006430DB3A5F113
:1012A0004100192802D8203546F400664A462946EE
:1012B000204626604E46FEF795FF80B101280BD0F0
:1012C000F61D26F0070000F1080956E74020E4E784
:1012D0008020D8E70020D6E706F104094DE728462C
:1012E00052E7206ABDE8F09F3BB7000040EA0103E7
:1012F000024630B59B0710D14FF0013400E008C220
:1013000008C91D1B9D4315EAC41FF8D013F0FF0147
:1013100002F8011B0DD01B0AF8E711F8013B002B66
:1013200002F8013B05D011F8013B002B02F8013B0C
:10133000F3D130BD4FF000020429C0F0128010F04C
:10134000030C00F0D382CCF1040CBCF1020F18BFE7
:1013500000F8012BA8BF20F8022BA1EB0C0100F034
:10136000C5BA5FEAC17C24BF00F8012B00F8012B4D
:1013700048BF00F8012B70477047704770472DE950
:10138000F0470D4699469246044600F1240801684C
:10139000880604D5E06921F01001216000E00120F9
:1013A000A84201DD471B00E00027A1697A1902EB82
:1013B0000900081AA0612078C00602D42046FFF771
:1013C00019FE002608E0D4E901211AF8060090472A
:1013D000206A401C761C20624E45F4DB2078C00653
:1013E0000AD52046FFF706FE06E0D4E901213020A9
:1013F0009047206A401C2062381EA7F10107F4DCE8
:1014000007E0D4E9012118F805009047206A401C44
:101410002062281EA5F10105F3DC2046FFF700FE3F
:101420002078000602D50220BDE8F0870120FBE706
:1014300070472DE9FF4F0C461E464FF0FF378BB02B
:10144000D2E90001DDF860800A908A46C1F30A55AE
:1014500005B93D46002108464FF00000BAF1000FE3
:1014600000F4400005DA00EB80004FF4400101EA8F
:1014700050004FEA9059B9F1010F00DDB9460A98C2
:1014800050EA4A000ED044F61050A5F2FF3545430D
:101490002F14B8F1000F1ED07542291E1EDDC9F1B0
:1014A00000021CE0B8F1010F4FF0000001D0302124
:1014B00003E0F24305E02154401CB042FBDB304620
:1014C0000022002121540B99C1F80880C1E90020B5
:1014D0000FB0BDE8F08FBD1B6D1CDEE74A4600DA99
:1014E000694206A800F0B2FA06AB93E8070003AB26
:1014F00083E8070050460A9900F08CFB8DE807004E
:10150000A0F500501F3800900398002D09DD42F22D
:101510001F014A46084403A90390684600F0EBFD0A
:1015200008E0A0F500504A461F3803A9039068461A
:1015300000F0F5FD8DE807000004000C03D04FF02B
:10154000FF30410800E01046B8F1000F03D0002240
:10155000009215461EE0751E05D400F0F1F93032F8
:1015600062556D1EF9D5B3460122084302D0002210
:101570007F1C04E02078302801D100227F1E002A41
:10158000099786D01DE0112D07DA00F0D9F9303225
:1015900062556D1C50EA0102F5D1084302D0009853
:1015A000C8B10EE00021681E05E0235C625C635454
:1015B0002254401E491C8142F7DBAB46A81B401E4B
:1015C0000990002004F80B000B98099AC0F80880D5
:1015D000C0E9002B7CE711264FF0000859E72DE900
:1015E000F04F88460446D21D22F0070191B0D1E9A0
:1015F0000001CDE90A0108F053F902460B98C00F2B
:1016000001D02D2007E02068810701D52B2002E0C2
:10161000202101EAC000032A099001D0072A05DB36
:1016200003464146204600F0D1F90BE120788006C0
:1016300001D5E06900E00620B8F1650F814606D0CB
:10164000B8F1660F18D0B8F1670F70D131E0002003
:10165000B9F1110F009001DB112301E009F1010341
:101660000AAA01A90CA8FFF7E4FEDDE90C70002628
:1016700009F10105834647E001204B4600904FF0F9
:1016800000470AAA01A90CA8FFF7D3FEDDE90DB0B7
:101690000C995D46002610B909F101000D18B9EB4F
:1016A000050003D4C0F1FF3609F10105A5EB0900DF
:1016B0002BE0B9F1010F01DA4FF001090020B9F177
:1016C000110F0090484601DD112300E003460AAAED
:1016D00001A90CA8FFF7ADFEDDE90C704D46002610
:1016E0008346207800070AD4AB4500DA5D4601A89E
:1016F000012D04DD411911F8011C302907D04F4597
:1017000002DA17F1040F04DA012082460FE06D1EA1
:10171000EEE7002F02DCED1B3E4403E0781CA842FC
:1017200000DD7D1CB81B00F1010A4FF00047207856
:10173000000703D4AA4501DB4FF0FF3A0021B7F1BF
:10174000004F0DF143088DF8431024D002202B23C5
:10175000002F01DA7F422D230A21021EA0F1010091
:1017600000DC5FB197FBF1FC97FBF1F201FB1C7C05
:1017700017460CF1300C08F801CDEEE7A8F1010096
:1017800003702188090501D5452100E06521A0F1FC
:10179000010800F8011C09980FA9A1EB0807FF1D1B
:1017A00000B10120411901EBEA70A1693844081A1F
:1017B000401EA0612078C00602D42046FFF71AFC24
:1017C000099828B1D4E901219047206A401C206281
:1017D0002078C00622D52046FFF70CFC1EE0002E24
:1017E00004DBB34502DD01A8805D00E03020D4E9D0
:1017F00001219047206A401C2062761CAAF101005A
:101800005FEA000A0AD100F097F8C0680168405CFE
:10181000D4E901219047206A401C2062281EA5F1CE
:101820000105DCDC07E0D4E9012118F8010B904741
:10183000206A401C2062381EA7F10107F3DC204615
:10184000FFF7EEFB032011B043E6000001694A1CDC
:1018500002610878704700B58FB0CDE901310021F1
:10186000059105497944CDE9031011466846FFF713
:1018700079FC0FB000BD0000E5FFFFFF0A6802F829
:10188000010B0A607047D1E900239A4202D2531C2F
:101890000B601070704710B5436913B1AFF300804F
:1018A00001E0FFF7CEFB012010BD127800F124010A
:1018B0000A7000224A700122EDE711684FF0FF32F2
:1018C000E9E70000074B70B50D467B44FFF7C3FF07
:1018D0000446284600F028F910B14FF0FF3070BDE3
:1018E000204670BDAB8000004FF0000200B51346EB
:1018F00094469646203922BFA0E80C50A0E80C5030
:10190000B1F12001BFF4F7AF090728BFA0E80C50E0
:1019100048BF0CC05DF804EB890028BF40F8042BD9
:1019200008BF704748BF20F8022B11F0804F18BF46
:1019300000F8012B704700000048704768550020F0
:1019400030B5B0F10A024FEA900E71F100034EEA91
:10195000817EB0EB0E0061EB91014FEA101E4EEA62
:10196000017E10EB0E0041EB11114FEA102E4EEAF2
:10197000016E10EB0E0041EB11214FEA104E4EEAC2
:10198000014E10EB0E0041EB1141401841F10001F6
:101990004FEAD00040EA41704FEAD10110EB8005D8
:1019A0004FEA810444EA907444EB01046D1944EB5E
:1019B0000404521BA3414FF0000348BF0A3200D574
:1019C00030BD401C41F1000130BD00002DE9F04167
:1019D0001F46044603260168072A01F4006004DB61
:1019E00008B116A505E016A503E008B115A500E0AD
:1019F00015A521F010002060A069C01EA0610FB1E4
:101A0000401EA0612046FFF7F5FA4FB1D4E901214D
:101A100038469047206A401C2062C01C206206E0C5
:101A2000206AFAE7D4E9012115F8010B9047761EE8
:101A3000F8D22046FFF7F4FABDE8F0814E414E009F
:101A40006E616E00494E4600696E66002DE9F047F2
:101A5000814616468AB0334878440DC88DE80D009B
:101A600030487844801C03AC0DC884E80D0041F672
:101A70009B300844372190FBF1F290FBF1F5A5F182
:101A8000800501FB12041B3C02D56442012000E0EA
:101A90000020DFF890A080460027FA44AAF1BE0A91
:101AA0000DE0E00709D03246684607EB47010AEB34
:101AB000810100F034FB8DE8070064107F1C002CCE
:101AC000EFD1184F7F44AC3F18E0E80714D007EB84
:101AD00004100DF1180A90E80E008AE80E00C068A4
:101AE000F04201D198190890324606A903A800F0E7
:101AF00016FB03AB83E807006D10641C002DE4D1D6
:101B000032466946B8F1000F03A802D000F0F3FA9C
:101B100001E000F004FBC9E90001C9F808200AB09F
:101B2000BDE8F087E4AE0000007B00F08000704765
:101B300000487047485500207546FFF7F9FFAE464C
:101B400005006946534620F00700854618B020B5C9
:101B5000FEF786FBBDE820404FF000064FF000077F
:101B60004FF000084FF0000B21F00701AC46ACE845
:101B7000C009ACE8C009ACE8C009ACE8C0098D46B2
:101B8000704710B50446AFF300802046BDE8104012
:101B9000FEF751BB4FF0013C50F8042B51F8043BC9
:101BA0009A4221D1A2EB0C03934313EACC1317D131
:101BB00050F8042B51F8043B9A4215D1A2EB0C03C8
:101BC000934313EACC130BD150F8042B51F8043B88
:101BD0009A4209D1A2EB0C03934313EACC13DBD056
:101BE0004FF00000704700BFD01A01BAB1FA81F17E
:101BF00001F0180122FA01F0CB40C1F12001DBB263
:101C0000C0B2C01A2CFA01F3D11A914311EAC311E0
:101C1000E6D170475FEA400C08BF91F0000F4FEA31
:101C20008C234FEAC12243EA51514FEA1C5018BF9E
:101C300000F5F0404FEA300018BF41F000415FEA84
:101C40006C5C00F02980BCF1FF3F08BF40F0804091
:101C50007047130C06BF12044FF0100C4FF0000C2D
:101C6000130E04BF12020CF1080C130F04BF120173
:101C70000CF1040C930F04BF92000CF1020CD30F73
:101C800004BF52000CF1010C11464FF00002A0F10C
:101C90001F00A0EB0C00704711F0004F08BF704709
:101CA00031F000413FF4D5AF0B0C06BF09044FF0F3
:101CB000100C4FF0000C0B0E04BF09020CF1080CC5
:101CC0000B0F04BF09010CF1040C8B0F04BF89003A
:101CD0000CF1020CCB0F04BF49000CF1010CCCF14C
:101CE0002003A0EB0C0022FA03F302FA0CF241EA03
:101CF000030100F10100704720F07F4C80EA0300EF
:101D000023F07F47ACEB070303F57C5300F0004062
:101D100003F1FF032DE980494FEA154B09B44FEA5F
:101D2000144325EA0B4E24EA03480FF2042606EB7F
:101D3000132749083E785FEA320203FB0667C7F5BE
:101D4000000707FB06F64FEA54374FEAD64606F17E
:101D5000020607FB066CCCF1005C4FEA1C472CEA3C
:101D6000074C07FB06F40CFB06F504EB15464FEA9F
:101D7000961634BF00204FF000404FEAD13706FBE3
:101D800007FC4FEA1C4C0CFB0BF7D21B03FB0CF7B8
:101D900061EB07010CFB0EF7B0EB074072EB17424B
:101DA0000CFB08F734BFA2EB0742B2EB074261EB32
:101DB00017414FEA0C444FEA910706FB07FC4FEA34
:101DC0001C4C0CFB0BF7B0EBC74072EB573203FB1C
:101DD0000CF734BFA2EBC742B2EBC74261EB5731FD
:101DE0000CFB0EF7B0EBC70072EB57720CFB08F759
:101DF00034BFA2EBC702B2EBC70261EB5771039F7E
:101E00004FEA816141EA921104EBCC044FEAD137E9
:101E10004FEA826206FB07FC42EA90124FEA8060BA
:101E20004FEA1C4C0CFB0BF7D21B03FB0CF761EBCE
:101E300007010CFB0EF7B0EB074072EB17420CFBEF
:101E400008F734BFA2EB0742B2EB074261EB174140
:101E50004FEA8C554FEA910704EB9C2406FB07FCE4
:101E60004FEA1C4C0CFB0BF7B0EBC74072EB573240
:101E700003FB0CF734BFA2EBC742B2EBC74261EBE6
:101E800057310CFB0EF7B0EBC70072EB57720CFB2F
:101E900008F734BFA2EBC702B2EBC70261EB577180
:101EA00015EB4C254FEA816141EA92114FEA8262BB
:101EB0004FEAD13742EA901206FB07FC44F10004D6
:101EC0004FEA80604FEA1C4C0CFB0BF7D21B03FB64
:101ED0000CF761EB07010CFB0EF7B0EB074072EB60
:101EE00017420CFB08F734BFA2EB0742B2EB0742E4
:101EF00061EB174115EB1C154FEA813141EA924124
:101F00004FEA823242EA90424FEA80304FEA0C7642
:101F100044F1000448EA03434EEA0B484FF0000E38
:101F2000B2EB080C71EB030724BF624639464EEB57
:101F30000E0E4FF0000B0018524149414BEB0B0BBA
:101F4000B2EB080C71EB03077BF1000B24BF624678
:101F500039464EEB0E0E4FF0000B0018524149412E
:101F60004BEB0B0BB2EB080C71EB03077BF1000B97
:101F700024BF624639464EEB0E0E51EA020718BFE7
:101F800046F0010616EB0E7655F1000254F1000101
:101F900003D5BDE88901BDE80088BDE88901BDE839
:101FA0000048B619524141EB0101A3F1010370470A
:101FB00080807F7E7D7C7B7A797877767675747386
:101FC000727171706F6E6E6D6C6C6B6A6A69686845
:101FD000676666656464636362616160605F5F5EDB
:101FE0005E5D5D5C5C5B5B5A5A5959585857575651
:101FF00056555555545453535252525151505050B6
:102000004F4F4F4E4E4D4D4D4C4C4C4B4B4B4A4A07
:102010004A4949494848484747474746464645454B
:102020004544444444434343434242424241414184
:10203000002B26D4770021D01CB54FEA370703B414
:102040004FF010004FF010014FF000000FBCBDE842
:1020500010400BF1010BBBF1010F08BF5FEA17073E
:1020600022BF12F1010211F101014FF0004143F1D1
:10207000000300F0004043EA00007047F9D357081E
:10208000DAE746EA064613F1400F4FEA16461FDD2F
:1020900013F1200FDFBF16430A46002120335B42B5
:1020A000C8D0C3F1200746EA064602FA07F74FEA0E
:1020B000164646EA0706C3F1200722FA03F201FAA0
:1020C00007F721FA03F14FF0000342EA0702B1E7F4
:1020D00046EA020646EA06464FEA164646EA010680
:1020E000BCBF46EA0646360C4FF000034FF0000234
:1020F0004FF000019EE72DE9C048934630B491E8C7
:10210000380007C831EA400C48BF34EA430C03D515
:10211000FFF7F2FDFFF78CFFF0BCBDE800882DE96A
:10212000C048934630B491E8380007C810F0804F9B
:1021300008BF13F0804F03D100F005F8FFF778FFD8
:10214000F0BCBDE8008820F07F4780EA030023F060
:102150007F4C07EB0C03A3F57C5300F00040A3F188
:10216000FE0392F0000F00F0B38095F0000F00F036
:1021700077802DE901494FEA11404FEA144621EAE0
:10218000004800FB06FC24EA064708FB06F607FBAE
:1021900008F800FB07F718EB06484CEB164C4FEA23
:1021A000124B18EB07484FEA15464CEB174022EA52
:1021B0000B4E0BFB06FC25EA06470EFB06F607FB5B
:1021C0000EFE0BFB07F71EEB064E4CEB164C4FF0CA
:1021D00000061EEB074E4CEB174B18EB0B0840F1BB
:1021E000000018EB0E0B58EB000840F100008F1AAE
:1021F0004FF000013CBFC943661B14BFB5EB040C94
:1022000000213CBFC943F61B4FEA17444EEA8E0E2D
:1022100027EA04454FEA1C4704FB07622CEA074CF7
:1022200005FB07F70CFB05F604FB0CFC16EB074659
:1022300042EB174216EB0C4642EB1C421BEB060628
:1022400058EB0202414146EA9E0601D5BDE80189EC
:10225000B619524141EB0101A3F10103BDE8018927
:102260004FEA14454FEA114724EA054621EA074C94
:1022700005FB07F406FB07F70CFB06F105FB0CFC5E
:1022800011EB074144EB17444FEA124711EB0C41A5
:1022900044EB1C4422EA074C05FB07F206FB07F758
:1022A0000CFB06F605FB0CFC16EB074642EB17424F
:1022B00016EB0C4642EB1C456A1854F1000148BF6E
:1022C0007047B619524141EB0101A3F10103704778
:1022D00095F0000F37D04FEA11424FEA144721EA38
:1022E000024624EA074C02FB07F106FB07F70CFB4A
:1022F00006F402FB0CFC14EB074441EB17414FEAD8
:10230000154714EB0C4441EB1C4125EA074C02FB3A
:1023100007F506FB07F70CFB06F602FB0CFC16EBB9
:10232000074645EB174516EB0C4645EB1C421219C8
:1023300051F1000148BF7047B619524141EB01010C
:10234000A3F1010370474FEA14454FEA114724EA0D
:10235000054621EA074C05FB07F106FB07F70CFBD6
:1023600006F24FF0000605FB0CFC12EB074241EBB6
:10237000174112EB0C4251EB1C4148BF70479218B9
:1023800041EB0101A3F10103704710B504460120A0
:1023900006F090FF2046FEF7ACFBBDE810400020A1
:1023A00006F088BF10B578B14FF48054012805D0ED
:1023B00002280FD11021012005F040FE2146BDE882
:1023C0001040022005F0F2BD1021BDE810400120B0
:1023D00005F034BE10BD00000027164D4FF47A768C
:1023E0002878012808D1002413A0FEF7DDFD641C25
:1023F000E4B2142CF8D32F7031221F2110A0FEF765
:10240000D3FDFEF7CBF9B0FBF6F106FB1104FEF7A6
:10241000C5F9B0FBF6F122460CA0FEF7C5FD0F4B47
:102420005F220FA112A0FEF7BFFD1AA0FEF7BCFDB0
:10243000D6E70000C4000020081B5BFF500000002E
:102440001B5B25646D1B5B25646D00005B453A25B5
:1024500032642E253033645D200000009FC70008E1
:1024600073746D3332663130785F69742E630000A7
:10247000257320282564293A202225732220667599
:102480006E6374696F6E206973206572726F72215A
:102490000A0000000D0A0D0A00000000C1B2000A87
:1024A00040EA01207047000070B5614B614C00208C
:1024B0005988A4F5007202E0155C2554401C88423E
:1024C000FAD35C48626820301F294260A2688260AB
:1024D00007D00220FFF766FF00202060607B1A22F1
:1024E00021E0E17B282901D02A290AD1D4F8110062
:1024F000227D00BA20F0FF0010435860E08A40BA05
:1025000098604D4A2068904252D14C4A607B1268D4
:10251000904203D8A27B0AB1102A0DD90220FFF7FE
:1025200041FF607B2422052105F022FEBDE87040BA
:102530000021012005F0FCBD252958D01ADC152901
:1025400071D00DDC08296ED005DCB9B3032936D073
:1025500004292DD163E00A2965D0122928D132E05F
:102560001A390A2924D2DFE801F03632235E3223F9
:102570002323233E8A2956D00EDC552953D006DC6E
:1025800028293CD02A2940D02F2911D143E05A29AB
:1025900025D088290CD146E0A82944D004DC8F2915
:1025A00041D09E2904D13EE0AA293CD0AF293AD09F
:1025B0000220FFF7F7FE607B2022B4E71BE0BDE8B6
:1025C000704004F06BB8BDE8704003F085BFBDE813
:1025D000704004F06FB8BDE8704003F0B7BFBDE8CD
:1025E000704003F0ADBFBDE8704004F021B8BDE815
:1025F000704003F0E5BFBDE8704004F05FB8D3E978
:102600000112BDE8704003F0A7BFD3E90112BDE895
:10261000704004F089B8BDE8704004F06BB8BDE8C4
:10262000704003F041BFBDE8704003F06FBF000091
:1026300000020020785400205553424364020020D9
:102640002DE9F84F0020ADF800004BF6BF7648F2B8
:1026500080084A4D4A4C40F68F7ADFF8289148F6B8
:102660000F7B494F2FE0088810F00F0089F8000019
:1026700032D007EB8001D1F8002CADF80020BDF876
:10268000002012040BD5D1F8002C02EA0A02C1F88E
:10269000002C3E4901EB800050F8040C8047BDF847
:1026A000000000060FD599F8000007EB8001D1F873
:1026B000002C02EA0B02C1F8002C354901EB800026
:1026C00050F8040C80472D48443000683149088098
:1026D0000004C8D4BDE8F88F28682080208800F066
:1026E00030006080208800F440502080286830400E
:1026F00080F4005080F0200040EA0800286008883C
:10270000C00617D4296801EA0B01296001F0B8FB63
:1027100028E02188890401D580F400506188C90629
:1027200028D46188890601D580F0200040EA08009D
:102730002860CFE72868ADF80000BDF8000000056C
:1027400006D5296801EA0A01296005F017FD09E0AC
:10275000BDF800000004B6D5286800EA0A00286029
:1027600003F082FB286821883040C904D1D580F469
:102770008050CEE780F01000D3E70000005C0040FE
:10278000420100203001002000500040480200209B
:102790002C02002028020020810008480844D0F8BC
:1027A000001C490409D5D0F8001C48F68F7211406E
:1027B0004CF280021143C0F8001C704700500040EA
:1027C000810008480844D0F8001C490609D5D0F813
:1027D000001C48F68F72114048F2C0021143C0F845
:1027E000001C704700500040810006480844D0F8A3
:1027F000001C48F68F62114048F280021143C0F875
:10280000001C70470050004070B5374905462A2427
:10281000486B10F0450FFBD0410702D5032404207C
:1028200003E0C00704D00124204604F011F859E069
:1028300004F056F8A8422BD140F2FF5004F008F8FB
:10284000002004F06FF8294908424BD0002801DA33
:102850001C2070BD410001D5092070BD810001D54B
:102860000A2070BDC10001D50B2070BD010101D54A
:102870000C2070BD410101D50D2070BDC10101D5F5
:102880000E2070BD010201D50F2070BD410201D59F
:10289000102070BD810201D5112070BDC10201D58B
:1028A000122070BD010301D5132070BD410301D575
:1028B000142070BD810301D5152070BDC10301D561
:1028C000162070BD010401D5172070BD410401D54B
:1028D000182070BD810401D5192070BD000701D5F5
:1028E0001A2070BD204670BD0080014008E0FFFD49
:1028F00010B50B4A2A24516B11F0450FFBD0480745
:1029000002D50324042003E0C80705D00124204693
:1029100003F09EFF204610BD40F2FF50F8E7000094
:102920000080014010B5084A2A24516B11F0450F70
:10293000FBD0480702D50324042001E040F2FF50F9
:1029400003F086FF204610BD0080014070B50C46A4
:10295000194906462A25486B10F0450FFBD0410760
:1029600002D50324042003E0C00705D0012420463B
:1029700003F06EFF204670BD03F0B2FFB04212D1EB
:1029800040F2FF5003F064FF002003F0CBFF10F48F
:10299000604F03D0810404D5132070BD000C20804B
:1029A00007E0410401D5102070BD000401D50F20BF
:1029B00070BD284670BD000000800140C10002D5F6
:1029C00002490860704702494860704704040240A9
:1029D0000000024070B50E460446FDF753FC054664
:1029E000FDF750FC216816B141F0010102E04FF6FD
:1029F000FE7211402160FDF749FC2846BDE8704099
:102A0000FDF744BC02460020D10001D5034900E097
:102A100003490968114200D00120704700040240B8
:102A2000000002402DE9F0410C460546FDF72AFC66
:102A30000646FDF727FC2A68014647F6F0708243F8
:102A4000236AA0681843D4E904373B431843A369B9
:102A50001843E3691843636A1843A36A1843104391
:102A60002860E06868602068A8606068E8600846E0
:102A7000FDF70CFC3046BDE8F041FDF707BC000057
:102A800070B504468CB00E461148FFF797FF114D04
:102A900000212846FFF79EFF0F48CDE900040020E3
:102AA000B108CDE902018021CDE904018900069138
:102AB0008900CDE907108900CDE90910694628464B
:102AC000FFF7B0FF01212846FFF784FF0CB070BD6F
:102AD00000F00010440402408080014070B50446BC
:102AE0008CB00D461248FFF769FF124E00213046A8
:102AF000FFF770FF1048CDE9000410200290A808ED
:102B0000039000208021CDE904018900069189000D
:102B1000CDE907108900CDE9091069463046FFF775
:102B200081FF01213046FFF755FF0CB070BD00005A
:102B300000F0001044040240808001402DE9F0477D
:102B4000DFF89490254F4FF03008D9F8001001F1CC
:102B50001005088A0E7A08B9042E04D0AC88A04269
:102B600015D8042614E01E480178012903D0072651
:102B7000102038802BE01B4A002112681A4B1204E7
:102B800003EBD2325160A7F8008001701FE00226EB
:102B9000844200D90446A96820468847824600201E
:102BA00001F0B6F801462246504606F023FA2146C7
:102BB000002005F035FA2888001B2880688820440A
:102BC0006880A7F8008009494FF440500880D9F880
:102BD00000000672BDE8F0873401002044010020A7
:102BE0002C010020505C00400060004042010020A9
:102BF0002DE9F047264FDFF89C80DFF89CA03C6869
:102C00004FF0300934F8100FA168D9B130B3A5885E
:102C1000854200D905462846884706462088401B3D
:102C200020806088284460806D1C6D08002001F0C1
:102C300053F808EB40002DB130F8041B26F8021BB6
:102C40006D1EF9D1208848B114494FF440500880D6
:102C50000021084605F0E4F9AAF800902088A18830
:102C6000884201D3032001E020B1052039680872B1
:102C7000BDE8F0873968062008720948002100681D
:102C8000000408EBD0304160AAF80090F0E70000A3
:102C90003401002000600040440100204201002077
:102CA000505C0040F8B55D4C5D4D0926206800275A
:102CB00029684278062A05D0AAB1082A4DD00A2AE6
:102CC00050D06BE00278520668D18078012804D099
:102CD000022804D0032804D060E0C96956E0096ADC
:102CE00054E0496A52E04288B2BBC288022A55D1F8
:102CF00002798ABB0278530601D1838833B102F08E
:102D00007F02012A04D0022A0CD047E045493DE069
:102D10008A69407900219047F0B92068807A0028BC
:102D2000F4D13BE0417901F00F0001F070020B0695
:102D30003D4901EB8001D1F8001C03D5C1F301111D
:102D4000090102E0C1F301310903384B1B788342CA
:102D500024D90AB90029D9D120E0007840061DD134
:102D6000334913E0027802F07F02012A16D1827AF9
:102D7000A2B1428892B9027982B9C288012A0DD1E2
:102D80008A6940790021904740B92A4931B12068C9
:102D90004782816100208847002006E0296820687A
:102DA000096940788847032813D021680A8AA2F568
:102DB0007F43FF3B0BD002280ED06AB10878000693
:102DC00026D5C888009082420AD9088218E00E727F
:102DD000F8BD20680672F8BD4FF008000872F8BD13
:102DE0000ED22868144B90F82C00824201D21F703A
:102DF00006E0B2FBF0F400FB142008B901201870C3
:102E0000286890F82C008882BDE8F840FFF796BE4D
:102E100003200872094900030880F8BD340100202E
:102E2000380100204D83000800500040D0020020EF
:102E3000E1820008258300082C01002042010020C7
:102E40000027164D4FF47A762878012808D10024FF
:102E500013A0FEF7A9F8641CE4B2142CF8D32F7069
:102E600031221F2110A0FEF79FF8FDF797FCB0FB61
:102E7000F6F106FB1104FDF791FCB0FBF6F12246DA
:102E80000CA0FEF791F80F4B8A220FA112A0FEF7BB
:102E90008BF81AA0FEF788F8D6E70000C4000020DF
:102EA000081B5BFF500000001B5B25646D1B5B254E
:102EB000646D00005B453A2532642E253033645D35
:102EC00020000000CFC7000873746D3332663130C4
:102ED000785F69742E630000257320282564293AE1
:102EE00020222573222066756E6374696F6E2069D7
:102EF00073206572726F72210A0000000D0A0D0ABC
:102F00000000000001F07EBA01F0BCBA014908607F
:102F1000704700001404014010B503A0FEF744F808
:102F200008490320086010BD75736220656E7465E2
:102F300072206C6F7720706F776572206D6F64659B
:102F40000D0A0000D40200204FF0204251B1102899
:102F500004D052F8800F40F0040009E0106E40F0F9
:102F6000040009E00549102804D052F8800F0840F9
:102F700010607047106E084010667047FBFF0F002E
:102F800030B5D0E901121143D0E903231A431143AC
:102F9000826941EA4221C26941EA423141F00804B2
:102FA000016AD1E9002342EA03220B89097B1B0451
:102FB00043EA01610A43416AD1E9003543EA052346
:102FC0000D89097B2D0445EA01610B4301684FF02F
:102FD0002040102904D040F8804F8260C36030BD8B
:102FE00004668266C36630BD30B58FB001214FF4F0
:102FF000F07002F0B9FF4DF6B300ADF828000324DD
:103000008DF82A4018208DF82B000AA9194800F0E5
:1030100009FE4FF4F060ADF828000AA9164800F048
:1030200001FE4025ADF828508DF82A4048208DF843
:103030002B000AA9114800F0F5FD0120CDE90B0491
:103040000221CDE90D101020CDE900010020090476
:10305000CDE90205CDE90410069007900BA8089071
:1030600009906846FFF78CFF01211020FFF76CFFE5
:103070000FB030BD00140140001801400020014095
:103080008000A0F1C0400029016802D041F0010198
:1030900001E0024A1140016070470000FEFF0F008E
:1030A00010B5D0E901121143D0E903231A431143AB
:1030B0004269114382691143C2691143026A114393
:1030C000426A1143826A1143C26A1143026B11437F
:1030D00002689200A2F1C04211608168082907D1FC
:1030E00001688900A1F1C0410A6842F040020A600B
:1030F000416BD1E9002342EA03128B688C891B02E1
:1031000043EA04431A430B8A42EA03520B7D89695E
:1031100042EA03620A4301688900A1F1C0414A60A2
:10312000C16AB1F5804F08D000686FF0704180002F
:10313000A0F1C040C0F8041110BD816BD1E900239B
:1031400042EA03128B680C8A1B0243EA04531A43B7
:103150000B7D896942EA036200680A438000A0F19E
:10316000C040C0F8042110BDF0B5012197B008029D
:1031700002F0D6FE01214FF4F07002F0F5FE4CF2A1
:103180000370ADF83C0018208DF83F00304E03244A
:103190008DF83E400FA9304600F044FD4FF6807098
:1031A0002C4DADF83C000FA9284600F03BFD4FF236
:1031B0003F00ADF83C000FA9274800F033FD3F2049
:1031C000264FADF83C000FA9384600F02BFD4FF418
:1031D0006050ADF83C000FA9304600F023FD3020D0
:1031E000ADF83C000FA9304600F01CFD2815ADF8E5
:1031F0003C000FA9384600F015FDADF83C400FA982
:10320000284600F00FFD002002211090CDE91101A9
:10321000149015900421CDE9001016901021CDE9ED
:10322000020113900490069009020790CDE908016D
:103230000A900B900C9010A80D900E906846FFF726
:103240002FFF01210420FFF71BFF17B0F0BD000086
:103250000014014000180140001C01400020014002
:10326000002A07D04FF0D0435B5A891C20F8023B5C
:10327000521EF7D1704710B5002A07D04FF0D04347
:1032800030F8024B5C52891C521EF7D110BD000071
:103290002DE9FC5F00244A4F00944FF480680194AC
:1032A0004025C7F81080C7E902540E464FF0080BBE
:1032B0001021C7E900B1A146384603F079FB102080
:1032C000FFF7A2FA2A284FD13E48AA464D46008968
:1032D000000438603720C7E9010AC7E90398384677
:1032E00003F066FB3720FFF78FFA2A283CD107F15D
:1032F00014003549C0E9001B302181600221C0E97A
:1033000003150121416103F0BBFA3320C7F808A07F
:10331000C7E90050C7E90358384603F049FB33209A
:10332000FFF772FA05462A281ED1DFF8A0804FF475
:10333000001A6F4640F22A69D8F8340010EA090FE3
:103340000AD1504603F0D2FA0028F5D003F02AFB48
:1033500047F82400641CEFE7082003F0C7FA28B1FF
:10336000082003F075FA0420BDE8FC9F022003F05A
:10337000BDFA20B1022003F06BFA0220F4E720200E
:1033800003F0B4FA20B1202003F062FA0620EBE744
:103390004FF40074204603F0A9FA20B1204603F050
:1033A00057FA0720E0E740F2FF5003F051FA009887
:1033B00000BA7060019800BA30602846D4E7000077
:1033C000003A002004010020FFFF0F0000800140B0
:1033D0002DE9F043DFF890C0DCF81420002A2BD050
:1033E000DCF81810C0F31006411AC90326D01F4F8D
:1033F000CCF81800410C49043B68012A21D08342D3
:103400002ED807EB820353F8043C9E4228D80023B1
:103410004FF0FF384FF00109521E9C18650857F80D
:103420002550A94212D19818400807EB8000D0F827
:10343000CC00CCF800003044BDE8F083DCF800009C
:10344000F9E799420CD1D7F8CC00F2E7934207D0C4
:10345000A94202D208EB5402DFE709EB5403DCE790
:10346000CCF80010E8E70000E8000020AC270020BE
:103470002DE9F041450C06466D04012000F074F979
:10348000074600F0A5F8C00708D1002407EBC421C7
:1034900005EBC42000F032F8C00703D0032000F091
:1034A00063F9EAE7641C402CF0D3284600F090F85A
:1034B000C00706D00121304600F03CF8450C064616
:1034C0006D04002412E005EBC421884607EBC420FC
:1034D00000F014F8C00708D04046022100F02AF896
:1034E00066F31000450C06466D04641C701BB4EBBB
:1034F000D02FE8D33046BDE8F081000070B50D460E
:103500000B4C014600202070084600F0C1FA35221D
:10351000227000F0A5FA85222270284600F0B8FA41
:103520001020207000F09CFABDE8704000F092B9C5
:10353000000001702DE9F0478A468146C0F3C52698
:1035400000F056F80546401C09D05046BAF1010F6C
:1035500035D0022806D0BAF1030F2CD115E0484629
:10356000BDE8F087022000F0FFF800248046771CB9
:1035700008E005EBC42108EBC420FFF7BFFFC0073C
:1035800019D1641CBC42F4D319E0022000F0ECF81D
:103590000746002406E007EBC420FFF7AFFFC00793
:1035A00009D1641CB44205EBC421F4D34846FFF7AB
:1035B000A5FFC00703D0284600F002F9C0E729465E
:1035C000484600F0FFF9C9F310002844C8E700009E
:1035D000064B10B56021197000F018FBD020187050
:1035E00000F03EFABDE8104000F034B90000017070
:1035F0002DE9F0410D4D00244FF0F1664FF0010828
:10360000285D40B906EB44473846FFF7E1FFC007A5
:1036100008D005F80480641C322CF1D34FF0FF3041
:10362000BDE8F081022028553846F9E744290020FA
:1036300010B5FFF7D9FC00F015F907484FF0FF313E
:103640008160C16000210161084600F08DF8BDE88D
:10365000104000F003B80000E80000202DE9F05F02
:103660004FF000083A4FDFF8EC903B4DDFF8ECA04C
:1036700044464FF0E0460020287007EB444000F03D
:1036800007FA3020287000F0EBF93078FF2815D1C8
:103690000020287009EB444000F0FAF9302028702F
:1036A00000F0DEF9307848B9002028700AEB444079
:1036B00000F0EEF93020287000F0D2F9641C032CE1
:1036C000D9D34FF0FF3BB8F1000F3CD100240020CC
:1036D000287007EB444000F0DBF93020287000F040
:1036E000BFF93078A8B90020287009EB444000F0F9
:1036F000CFF93020287000F0B3F9307848B90020B5
:1037000028700AEB444000F0C3F93020287000F024
:10371000A7F9641C032CDAD3B8F1000F13D11048B9
:103720000023104A4361184602F5CC7459462354CD
:1037300042F8201002EB8005401CC5F8CC1032285E
:10374000F5D300F097F80649C1F818B0BDE8F09F2E
:1037500000F8830700F08307000001700000820773
:10376000E8000020AC270020124B1349002230B1A2
:1037700001280BD0022817D0032815D111E0002012
:103780004A601A54401C0A28FBD30DE04868401CCC
:1037900048600A2800D34A604868185C0028F5D1C0
:1037A00002E04A68012098548888044901EB4040AF
:1037B00070470000A0270020E80000200000EC0770
:1037C000A0F1F160400C322802D2024A01211154CA
:1037D00070470000442900202DE9F0410D461A49A8
:1037E0001746884202D90120BDE8F081FFF7F0FDBD
:1037F000164E04466FF30A00F168154B6FF30A0189
:10380000884206D000201870204600F041F9302090
:1038100005E005201870204600F02EF9E020187011
:1038200000F01EF900204FF0E0424FF400731178D1
:103830002954401C9842FAD3F46017B94FF0FF3076
:10384000F0600020D0E70000FFFF8107E8000020C3
:10385000000001700249702008700006007870476F
:10386000000001700249FF20087000F0F9B8000064
:10387000000001702DE9F05FDFF82C814B4E002431
:103880004FF0E0454FF400678020307008EB444073
:1038900000F0FEF8002028700120FF21B946401CEE
:1038A00029704845F9D300F0A5F9641C032CEBD32B
:1038B0000027B246DFF8F88008EB47400446FFF7E0
:1038C00087FE80208AF800005346204600F0E0F88A
:1038D00038484FF4FF714FF0E0424069107001EB3F
:1038E0001061C0F307442144C0F307242144C0B24F
:1038F00045180824DFF8C0B000269A4660050AD1B2
:1039000000F078F980208AF8000004EB474101EBD1
:10391000080000F0BDF81BF806004FF0E041641C01
:10392000761C05440870B6F5C87FE7D3C346002669
:10393000884660050AD100F05DF980208AF8000011
:1039400004EB474101EB0B0000F0A2F81B48641C9C
:10395000805D761C054488F80000322EE9D303E030
:10396000FF2088F80000641C6005F9D100F042F9DE
:1039700080208AF80000124800EB474000F088F8E9
:10398000E843401C88F8000005204A46FF21401CFF
:1039900088F800109042F9D300F02CF97F1C032F17
:1039A00088D3BDE8F09F000000F883070000017095
:1039B00000008207E8000020AC27002044290020F6
:1039C00000F083072DE9F041234C4FEA514C214987
:1039D0006FF31000214E63694FEA4C4C884212D9B4
:1039E00000210DE006EB8102D2F8CC20824206D104
:1039F00006EB8101C1F8CCC0FFF7E2FE23E0491CD1
:103A00009942EFD31FE0002204E056F822108142D1
:103A100002D8521C9A42F8D319460AE006EB8105F7
:103A200055F8047C46F82170D5F8C870491EC5F8D1
:103A3000CC709142F2D846F8210006EB81005B1C65
:103A4000C0F8CCC06361FFF715FF4FF0FF30A061F5
:103A5000BDE8F081FFFF8107E8000020AC270020CF
:103A600010B5044C4021204600F02AF90028F9D076
:103A700010BD000000200140044AC0F30A000021EC
:103A80001070000A491C0229FAD370470000027026
:103A90000649074A01EA4011C0F30A000143002029
:103AA0001170090A401C0428FAD370470000FFFF78
:103AB000000002702DE9F05F0D464B4993468842A5
:103AC00002D90120BDE8F09FFFF782FC474E044673
:103AD0006FF30A00B168464F6FF30A014FF0010A15
:103AE0004FF0E0484FF40079884233D0306950B14C
:103AF00000F080F8C00706D00321A4F50060FFF7AE
:103B000019FD00F50064B168600C40046FF310010A
:103B1000884203D02046FFF7ABFC044600203870F3
:103B20000220FFF721FEC4F310010844FFF7B0FFA5
:103B300035203870FFF794FF852038702046FFF756
:103B4000A7FF002042464B46295C401C117098425A
:103B5000FAD30CE0852038702046FFF78DFF002057
:103B600042464B46295C401C11709842FAD3C6F875
:103B700010A0B046B460BBF1000F32D100F03AF8AB
:103B8000C00704D003212046FFF7D4FC044604F507
:103B90000030E10A6FF31000C902411A4FF0FF39FB
:103BA00009EBD1270220FFF7DFFDC4F3100146180F
:103BB00000250FE004F5006406F500662146304656
:103BC000FFF79CFCC00704D002212046FFF7B2FC9F
:103BD00004466D1CBD42EDD30020C8F80890C8F81B
:103BE000100000206EE70000FFFF8107E8000020C2
:103BF00000000170044910B510200870FFF730FF75
:103C0000BDE81040FFF726BE00000170C00A044A5C
:103C10000021491C1070000A0229FAD370470000E5
:103C200000000270F0B5CC78002204F00F03E40627
:103C300001D58C7823430C784FF00F0C14F0FF0F54
:103C40004FF0010E1BD005680E880EFA02F42640D4
:103C5000A64210D196000CFA06F725EA070703FAE8
:103C600006F5CE783D43282E02D0482E02D002E041
:103C7000446100E00461521C082AE5D305600A880B
:103C8000FF2A1CD94468002202F108060EFA06F544
:103C90000E882E40AE420ED196000CFA06F7BC43B9
:103CA00003FA06F7CE783C43282E00D14561CE7842
:103CB000482E00D10561521C082AE5D34460F0BDAE
:103CC0000246002092680A4200D0012070474161FC
:103CD00070470161704700000549096889B201EB2E
:103CE000C000044901EB4000008980B27047000029
:103CF000505C004000600040044901EB8000D0F8B7
:103D0000000CC0F301300003704700000050004079
:103D10000449096889B201EBC000034931F8100079
:103D200080B27047505C00400060004008B1044819
:103D3000704704490120096808820020704700008C
:103D400064020020340100200A4810B50168001DFB
:103D50000468001D006808180BD00822064900F00E
:103D6000BDF8054920460422BDE81040103100F09E
:103D7000B5B810BDE8F7FF1F0E020020052600F0C1
:103D800089FE1B4D2878012809D1002419A0FDF7D0
:103D90000BF9641CE4B2142CF8D3002028703122F3
:103DA0001F2116A0FDF700F9FCF7F8FC4FF47A7418
:103DB000B0FBF4F104FB1105FCF7F0FCB0FBF4F1EF
:103DC0002A4611A0FDF7F0F8134B392213A119A0D0
:103DD000FDF7EAF820A0FDF7E7F8314620A0FDF74F
:103DE000E3F82046FCF785FE314623A0F7E7000004
:103DF000C4000020081B5BFF500000001B5B256413
:103E00006D1B5B25646D00005B453A2532642E25F1
:103E10003033645D20000000E0C700082E2E5C6196
:103E200070705C6D795F706C6174666F726D2E631B
:103E300000000000257320282564293A20222573DC
:103E4000222066756E6374696F6E206973206572D7
:103E5000726F72210A0000000D0A0D0A00000000B6
:103E600053797374656D2077696C6C207265736526
:103E7000742E2E2E2E256400081B5BFF5025640037
:103E800010B5134C2068017A022904D0042902D00D
:103E9000062905D015E0FEF751FE2068007A11E0F2
:103EA0004178052909D10178490606D1C07803F087
:103EB000ADFF08480068006A8047074800688068CE
:103EC0008047082021680872BDE8104001F0F0BF6B
:103ED000340100203C01002038010020F0B500230F
:103EE0000A24302537261F4610E0B4EB107F02D994
:103EF00005EB107C01E006EB107C01F813C001EB30
:103F0000430C00015B1C8CF80170DBB29342ECD3D4
:103F1000F0BD00007CB5044600214F48009101919E
:103F200000892A2502044D4802600D224260402289
:103F3000C0E902211101016102F03AFD4849486BD4
:103F4000019002E04A6B0192104610F0450FF9D043
:103F50000198400702D50324042004E00198C0071B
:103F600005D00124204602F073FC20467CBD02F0FF
:103F7000B7FC01900D2838D140F2FF5002F068FCE8
:103F8000002002F0CFFC0090C0F3432020703549A0
:103F9000009808425DD00098002801DA1C207CBD02
:103FA000400001D509207CBD0098800001D50A2081
:103FB0007CBD0098C00001D50B207CBD009800019D
:103FC00001D50C207CBD0098400101D50D207CBDA1
:103FD0000098C00101D50E207CBD0098000201D5DB
:103FE0000F207CBD0098400201D510207CBD0098B8
:103FF000800201D511207CBD0098C00201D512209D
:104000007CBD0098000301D513207CBD00984003BF
:1040100001D514207CBD0098800301D515207CBDFE
:104020000098C00301D516207CBD0098000401D57E
:1040300017207CBD0098400401D518207CBD009855
:10404000800401D519207CBD0098000701D51A20F5
:104050007CBD28467CBD000004010020003A002001
:104060000080014008E0FFFD10B5064C06A0FCF7FB
:104070009BFFA17A0A4809B1052100E001210160F6
:1040800010BD00002C4A00206C65617665206C6FC5
:104090007720706F776572206D6F64650D0A000080
:1040A000D40200207047704730B5164A4FF40071B3
:1040B0000C0302F10C0328B101280ED0022816D0FF
:1040C000012030BD0F484FF4001418380025C0E916
:1040D000004560121160186012E00B485860516092
:1040E0004102084800221838C0E9021208E0916035
:1040F0000448002218384FF080419C60C0E9041247
:10410000002030BD604A0020FFC0030010B500242D
:1041100028B1012808D002280DD0012010BD04F0DC
:10412000A1FF044606A002E0FFF782FA0AA0FCF70E
:104130003BFF204610BD02F0CFFD04460CA0F6E781
:104140000A737069666C61736820696E6974206FA8
:104150006B210D0A000000000A4E616E64666C61FE
:10416000736820696E6974206F6B210D0A0000006E
:104170000A53444341524420696E6974206F6B2195
:104180000D0A0A0010B51346DDE90312029C20B1A6
:10419000012807D002280FD10AE01946204604F072
:1041A0006FFF0CE00A4621461846FFF715FB06E0B4
:1041B0002146184603F022F90CB1012010BD002061
:1041C00010BD10B51346DDE90312029C20B1012891
:1041D00007D0022810D10AE01946204604F0BCFF9F
:1041E0000CE00A4621461846FFF764FC06E021462B
:1041F000184603F03DFA0CB1012010BD002010BD9F
:104200000D4900B509680A7802F07F02212A08D119
:10421000FE2806D1488820B9888810B9C8880128A6
:1042200001D0022000BD0548886100204882FFF7C8
:104230007DFD002000BD0000340100202D3D000860
:10424000014904F061B8000070020020014904F047
:104250005BB800006802002005490968C978052993
:1042600001D900207047034A02EBC10104F04CB8A9
:1042700034010020A802002009B9002800D0022043
:10428000704700000F4910B509680A7802F07F02F4
:10429000212A07D1FF2805D1488818B9888808B98C
:1042A000C88808B1022010BD0120FEF789FA02205B
:1042B000FEF772FA054904480860054900200870B5
:1042C00010BD0000340100205553424378540020B3
:1042D0000002002070B5394800253A4985723848F7
:1042E0000968C0794872284603F088FD4FF40071D0
:1042F000002003F0BBFE2021002003F09FFE1821C8
:10430000002003F023FE304C002014F82C1F03F093
:104310002DFE5821002003F073FE0020FEF764FA02
:10432000002003F05BFE0021012003F09FFED82156
:10433000012003F065FE2021012003F07FFE002113
:10434000012003F033FE0021022003F08FFE022043
:1043500003F0ECFD4FF4AC724FF48C71022003F0CB
:1043600079FD22780121022003F08EFD0220FEF764
:1043700013FA0220FEF724FA022004F045FB4FF462
:104380004051022003F012FE0021022003F056FEED
:104390002178002003F0EAFD002003F01FFE00203A
:1043A00003F034FD0949012008600A490848086003
:1043B00009480570BDE8704004F04CBD2C4A00204F
:1043C00004C800083401002078020020D402002034
:1043D0005553424378540020000200207047704734
:1043E00010B5FFF7B1FC054800240068847201F0A5
:1043F00081FD04F03DFD0248046010BD3401002041
:10440000D40200201C4910B5087840F01000087054
:104410001A4B1878022819D04FF44054032824D09E
:10442000042801D0052825D100201870214602203B
:1044300003F0BCFD0220FFF75FFCB0F5805F19D1EF
:104440002146BDE81040022003F0B0BD0C48C27BFD
:10445000282A0FD10A7842F002020A70D3E9011229
:10446000407BBDE8104002F077B80121002003F046
:104470005FFEE5E710BD00004901002000020020BA
:104480007854002070B5194E307840F0100030702C
:10449000174C0220A4F50071E57B04F0F9FC1549E6
:1044A0004880087818B1012805D0022006E0BDE850
:1044B0007040FDF7F9BF2A2D0DD00120FDF772FFE6
:1044C000607B2422052103F053FEBDE870400021EB
:1044D000022003F02DBE307840F0010030708A6871
:1044E000607B4968BDE8704002F01EB949010020B8
:1044F00078540020000200200027164D4FF47A76F1
:104500002878012808D1002413A0FCF74DFD641C75
:10451000E4B2142CF8D32F7031221F2110A0FCF725
:1045200043FDFCF73BF9B0FBF6F106FB1104FCF789
:1045300035F9B0FBF6F122460CA0FCF735FD0F4B28
:1045400050220FA112A0FCF72FFD1AA0FCF72CFDA2
:10455000D6E70000C4000020081B5BFF50000000ED
:104560001B5B25646D1B5B25646D00005B453A2574
:1045700032642E253033645D200000008DC70008B2
:1045800073746D3332663130785F69742E63000066
:10459000257320282564293A202225732220667558
:1045A0006E6374696F6E206973206572726F722119
:1045B0000A0000000D0A0D0A000000000027164D39
:1045C0004FF47A762878012808D1002413A0FCF74C
:1045D000EBFC641CE4B2142CF8D32F7031221F21A1
:1045E00010A0FCF7E1FCFCF7D9F8B0FBF6F106FBF4
:1045F0001104FCF7D3F8B0FBF6F122460CA0FCF74F
:10460000D3FC0F4B34220FA112A0FCF7CDFC1AA053
:10461000FCF7CAFCD6E70000C4000020081B5BFFC3
:10462000500000001B5B25646D1B5B25646D000062
:104630005B453A2532642E253033645D200000004E
:1046400081C7000873746D3332663130785F6974E6
:104650002E630000257320282564293A2022257323
:10466000222066756E6374696F6E206973206572AF
:10467000726F72210A0000000D0A0D0A000000008E
:104680007047000070B504460F25FBF7FBFD02469E
:10469000E0780123F8B117480068617800F4E06021
:1046A000C0F5E060000AC0F10406C540A078B14042
:1046B000284008432178000101F1E02181F800043D
:1046C000207800F01F018B404009800000F1E020BD
:1046D000C0F8003109E0207800F01F018B4040094C
:1046E000800000F1E020C0F88031BDE87040104645
:1046F000FBF7CCBD0CED00E002490843024908601D
:10470000704700000000FA050CED00E070B52F4D79
:10471000296808784C78420606D000F07F0001280E
:1047200028D002282BD035E0092C06D0052C07D044
:10473000032C0ED0012C14D02CE003F051FE28E005
:10474000C8787F282ED8887860BB888850BB887A44
:1047500027E0C87801281DD18888D8B903F05CFE0D
:1047600017E0C878012815D1888898B9487A80065A
:104770000AD40FE00B2C0DD103F0A4FE09E0012CAC
:1047800002D0032C03D005E003F02CFD01E003F080
:1047900055FE58B10E4920460968496988470328E3
:1047A00002D018B108200DE009200BE0094A0620CC
:1047B00000211268084B120403EBD2325160074A01
:1047C000302111802968087270BD0000340100207A
:1047D00038010020505C004000600040440100208F
:1047E0002DE9F0412D4E4FF000083078012809D115
:1047F00000242BA0FCF7D8FB641CE4B2142CF8D3E3
:1048000086F8008031221F2127A0FCF7CDFBFBF7A3
:10481000C5FF4FF47A77B0FBF7F107FB1104FBF704
:10482000BDFFB0FBF7F1224622A0FCF7BDFB25A09F
:10483000FCF7BAFB27A0FCF7B7FB0025307801286E
:1048400009D1002416A0FCF7AFFB641CE4B2142CC1
:10485000F8D386F8008031221F2113A0FCF7A4FBB7
:10486000FBF79CFFB0FBF7F107FB1104FBF796FF8A
:10487000B0FBF7F122460FA0FCF796FB174829463C
:1048800000EB8510426816A0FCF78EFB11A0FCF728
:104890008BFB6D1C142DD1DBBDE8F081C400002022
:1048A000081B5BFF500000001B5B25646D1B5B2534
:1048B000646D00005B453A2532642E253033645D1B
:1048C000200000006F732064756D705F74696D6502
:1048D000720000000D0A0D0A0000000060110020A7
:1048E0007425643A2578000070B505460D480E46DB
:1048F0001446807808B1122009E02B78012B08D0EB
:10490000022B06D0032B04D0042B02D00120107000
:1049100070BDFBF7B7FC2E61FBF7B8FC00202070E0
:1049200070BD00001400002030B587B000F0AAF878
:10493000444B00241C639C70DC701C72DC71DC60D6
:10494000DC619C615C615C709C7103F13401204608
:10495000401CC0B201F8014B0528F9D31C715C71F1
:104960009C624FF4B86138481C6201F03FF9364848
:104970008421843801F03AF93348002200F15C01C7
:1049800032A505654161521CD2B25C305C310F2A00
:10499000F6D32EA1446101652B48DC6258624FF4C6
:1049A0007071A0F2C45001F021F92948002200F1F1
:1049B000140100F8044B25A540F80C1B521C20C024
:1049C00092B214312F2AF4D3047020A14460016103
:1049D0001F48186101F0D6F801F012F902A9032569
:1049E000202081E831001B484FF6FF710594CDE986
:1049F000001000F17C0220230021174800F074FB16
:104A000006AA16A1202000F06FFC02A9402081E830
:104A1000310016484FF6FE710594CDE9001000F103
:104A2000FC021F230021124800F05EFB06AA11A120
:104A30001F2000F059FC00F005FF07B0BDE8304032
:104A400000F026B814000020D00900203F0000002C
:104A50000C040020CC0800208D5D000875432F4F0A
:104A6000532D49492049646C65000000CC070020A3
:104A7000C15D000875432F4F532D49492053746180
:104A80007400000001490020088070476C0000207D
:104A9000704700000449C879012804D18878FF28AC
:104AA00001D2401C887070471400002070B5144C6F
:104AB000E079012822D1FBF7E5FBA178054621B179
:104AC000491E11F0FF00A07013D1E07888B901F001
:104AD000D7F80C49607951F82010A16222799042F0
:104AE00007D0C86B401CC863E068401CE060FBF75F
:104AF000E5FB2846BDE87040FBF7C8BB70BD000071
:104B0000140000204C0900202DE9F04106461B4806
:104B10008846007810B10020BDE8F081FBF7B2FBB9
:104B2000174F3C680CB161683960FBF7AFFB14B3F9
:104B3000FBF7A8FB13490D68BDB12A680A60FBF7B3
:104B4000A5FB06EB8800C5E90160EE602E61A5F8C3
:104B500014800020E8820221217020810AA0656073
:104B60002061204601F002F805E0396861603C6090
:104B7000FBF78CFB00242046CEE700001600002047
:104B800024000020540000203F0000002DE9F047E1
:104B90000446007888461546022801D0012003E02B
:104BA0003148007810B10F2010701DE0FBF76AFB50
:104BB0000746A07A08B1012600E000265FEA080057
:104BC000DFF8A880DFF8A8A04FF0000906D0012880
:104BD0002AD03846FBF75AFB072004E03EB138469E
:104BE000FBF754FB492028702046BDE8F08721A040
:104BF00020616068D8F800204E460260C8F80000C6
:104C000084F80090DAF800106160A4F80890384643
:104C1000CAF80040FBF73AFB2E7022E00023042282
:104C20001946204600F020FFA07A0028F6D111A0F6
:104C300020616068D8F800200260C8F8000084F89D
:104C40000090DAF800206260A4F80890C846384660
:104C5000CAF80040FBF71AFB0EB100F0EDFF85F833
:104C600000800020C1E70000160000205400002052
:104C7000240000203F0000002DE9F04706460078A0
:104C800089461446022801D0012008E02F48007808
:104C900008B1022003E02E48007820B10D201070EA
:104CA0000020BDE8F087FBF7EDFA054670680027A5
:104CB000C18A89B10269111D01611668C28A521E3A
:104CC000C2828268914201D1416801612846FBF7A6
:104CD000DDFA27703046E4E7DFF87880D8F8000086
:104CE00010F8341F41F004010170477040F8049C33
:104CF000304600F017FF2846FBF7C8FA00F09CFF8B
:104D0000FBF7C0FA8146D8F8000090F8351039B1A9
:104D1000022908D0314600F0E1FE00250A2004E017
:104D2000456A277002E000250E202070D8F8001098
:104D3000484681F8347081F8357041F81C7F4F6027
:104D40008F60FBF7A3FA2846ABE7000016000020AF
:104D5000170000203400002070B5044600780E468D
:104D6000022801D0012070BDFBF78CFA0546A07A1D
:104D700058B1002304223146204600F075FE284633
:104D8000FBF784FA00F058FF19E06068C18A828A54
:104D9000914204D32846FBF779FA1E2070BDC16802
:104DA0000A1DC2600E60C18A491CC182D0E902128C
:104DB0008A4201D14168C1602846FBF767FA0020AA
:104DC00070BD000010B5094CE07901280CD1FBF74B
:104DD00059FAA17821B9E178FF2901D2491CE17083
:104DE000BDE81040FBF752BA10BD000014000020CF
:104DF00010B50D4CE079012814D1FBF743FAE178A6
:104E000031B1491E11F0FF01E17001D1A17819B152
:104E1000BDE81040FBF73ABAFBF738FABDE810409E
:104E200000F00ABF10BD00001400002070B5054658
:104E30000D48007808B1002070BDFBF723FA0B493C
:104E40000C680CB162680A60FBF720FA4CB10320D1
:104E5000207025810020606005A02061204600F0C0
:104E600085FE204670BD00001600002024000020B2
:104E70003F0000002DE9F0470446007888461546BB
:104E8000032801D0012003E02948007810B10F2049
:104E900010701BE0FBF7F6F90746A07A08B101266F
:104EA00000E000265FEA0800DFF888904FF0000875
:104EB00006D0012824D03846FBF7E8F9072004E0A3
:104EC0003EB13846FBF7E2F9492028702046BDE89C
:104ED000F08719A0206184F80080D9F80010616083
:104EE000A4F8088046463846C9F80040FBF7CEF9DA
:104EF0002E701BE0002301221946204600F0B4FD6D
:104F0000A07A0028F6D10CA0206184F80080D9F89E
:104F100000206260A4F808803846C9F80040FBF71A
:104F2000B5F90EB100F088FE85F800800020CEE7CC
:104F300016000020240000203F0000002DE9F0476B
:104F40000546007889461446032801D0012008E070
:104F50002648007808B1022003E02548007818B1FF
:104F60000D201070BDE8F087FBF78CF90646288904
:104F7000002730B1401E28813046FBF787F92770A3
:104F8000F0E7DFF87080D8F8000010F8341F41F027
:104F900001010170477040F8049C284600F0C2FDF2
:104FA0003046FBF773F900F047FEFBF76BF9064656
:104FB000D8F8000090F8351031B1022906D0294602
:104FC00000F08CFD0A2002E0277001E00E20207026
:104FD000D8F8000080F8347080F8357040F81C7FF5
:104FE00047603046BDE8F047FBF750B91600002097
:104FF000170000203400002070B504460078032814
:1050000001D0012070BDFBF73DF90546A07A58B1EB
:10501000002301221946204600F026FD2846FBF712
:1050200035F900F009FE09E020894FF6FF7188424A
:1050300006D2401C20812846FBF728F9002070BDCD
:105040002846FBF723F9322070BD70B5044600787E
:105050000E461546032802D00120107070BDFBF7E4
:1050600011F900212970218939B9A17A29B1492181
:105070002970BDE87040FBF709B92681F9E7000007
:1050800010B5094CE07900280CD100F0F9FD6079E9
:105090000649207151F82000A0622062BDE810404E
:1050A000FBF7F7B810BD0000140000204C090020E9
:1050B00010B5022000F0FEF9FBF7E4F8084C0021DF
:1050C000E161FBF7E3F80A2000F0F4F9FBF7DAF806
:1050D000E169616101216170BDE81040FBF7D6B85C
:1050E00014000020704700002DE9FF4F83B01C46DC
:1050F000DDE91468DDE912799346DDF844A0FBF799
:10510000C1F82049097829B1FBF7C0F83C2007B065
:10511000BDE8F08F1C4D55F8241019B1FBF7B6F817
:105120002820F4E7012145F82410FBF7AFF83246B8
:105130003946504600F08CFEDDE9030133465A46FD
:1051400000F034F90097CDE9019601465246204619
:10515000109B00F0A5FD060008D0FBF793F8002196
:1051600045F82410FBF792F83046D0E755F82410A4
:10517000064881F8588000780128F5D100F05CFDE0
:10518000F2E70000160000204C0900201B00002060
:10519000704700002DE9F04705464748007810B1F8
:1051A0004020BDE8F087202D05D0FBF76BF80646C0
:1051B000FF2D02D005E03E20F3E74048006890F85C
:1051C0003650DFF8FC9059F825405CB1012C0ED028
:1051D00094F838103B4A94F83930505C9843505456
:1051E0000AD00FE03046FBF751F84320D9E73046AC
:1051F000FBF74CF83D20D4E7334894F83A20017887
:1052000091430170E16911B1204600F067FC216A09
:1052100011B1204600F072FCA06A08B100F0D6FC83
:105220004FF00008C4F83080284F84F8348084F8A8
:1052300035803878FF2801D2401C38703046FBF7A3
:1052400025F800F00FFCFBF71DF88246387808B10E
:10525000401E3870204600F045F81D494646087843
:10526000401E087049F82580A069D0B1616941618C
:10527000D4E905018161174801686161046016A0E5
:10528000206594F8580020B1A06804F019FD84F856
:1052900058605046FAF7FAFF10480078012806D007
:1052A00007E060690E49866160690860E3E700F025
:1052B000C3FC002075E70000160000203400002029
:1052C0004C090020480000201A0000201700002090
:1052D0001C000020380000203F0000001B000020C0
:1052E000400000207047704770B5054610480E46D4
:1052F0001446007810B11220107070BDFAF7C2FF8A
:10530000FF2D03D10B49096891F836500A4951F82D
:10531000252043253AB1012A05D01665FAF7B6FFD4
:105320000020207070BDFAF7B1FF257070BD00003D
:1053300016000020340000204C0900207047704700
:105340002DE9F0410446002008600E464860FAF757
:1053500099FFFF2C03D11349096891F8364012498F
:1053600051F8241051B1012908D00A7CD2070AD083
:10537000D1E902570024FAF789FF09E0FAF786FF1E
:105380004320BDE8F081FAF781FF4520F9E7641C6E
:1053900001CD0028FBD0A0003060381B8000706079
:1053A0000020EEE7340000204C0900204FF080730D
:1053B0001360131F1860A2F10800184B0360001F50
:1053C0004FF012330360001F4FF003330360001FE0
:1053D0004FF002330360001F5B100360001F016089
:1053E000001F4FF011310160001F19010160001F03
:1053F0004FF009310160001FD9000160001F4FF01C
:1054000007310160001F4FF006310160001F4FF0AF
:10541000053101609900001F01607047A95D000817
:1054200070B50446FAF72EFF01461D48FF2C0068B0
:1054300005D090F83600A04204D1012503E090F891
:105440003640FAE70025174850F8240058B10128E3
:105450000ED090F83820144C90F83960A35CB34318
:10546000A3540AD00FE00846FAF710FF482070BD99
:105470000846FAF70BFF432070BD0C4A90F83A40FB
:105480001378A343137010F8342F42F0080202700F
:105490000846FAF7FBFE0DB100F0CEFB002070BD10
:1054A000340000204C090020480000201A00002091
:1054B0007047000070B504461148007800281DD1DF
:1054C000002C1BD0FAF7DEFE03460E480E4D016895
:1054D00091F8382091F83960A85CB043A85405D100
:1054E0000A4891F83A500278AA43027018460C63B1
:1054F000FAF7CCFEBDE8704000F09EBB70BD000026
:105500001600002034000020480000201A0000206F
:1055100010B50F4C24780CB1552010BD64245B1DD0
:1055200063434FF47A74B3FBF4F34FF46164604364
:10553000C1EB011100EB8100104400EBC00101EB55
:10554000001003EB8000FFF7B5FF002010BD000046
:10555000160000202DE9F04100F04CF8FAF792FE19
:10556000234D296B491C2963FAF790FEE87901283D
:105570003BD1687A0126002720B1012835D00228C6
:1055800002D06F72EC6A2CE06E72FBE7FAF77AFEDB
:10559000216B19B3491E216320D194F8341011F006
:1055A000370F06D021F0370184F8341084F83560C5
:1055B00001E084F8357094F8341009070ED494F89B
:1055C0003A10AA790A4B1143A97194F83810343370
:1055D00094F839C05A5C42EA0C025A546469FAF7EA
:1055E00055FE94F836002028D0D1BDE8F0810000A7
:1055F0001400002005490888401C0004000C0880A5
:1056000003D00020088000F079B870476C000020BB
:105610002DE9F05F82461C48DDF828B00C9D00782B
:105620001F469046894608B18B202AE0FFF7CAFB47
:10563000164800260468ECB1E16801601448E66091
:1056400026610188491C018012490888401E088093
:10565000A4B1012084F82500C4E906A984F82480B7
:10566000C4E9017B0B982062FFF7C2FB2E70204635
:10567000BDE8F09FFFF7B4F83446E9E7FFF7B8FB61
:10568000862028700020F3E7160000206800002024
:105690005A0000205800002070B5054600780C46DE
:1056A000642801D0892003E01348007810B18B20D2
:1056B00008701EE0FFF786FB95F82510A9B10026BB
:1056C00001290AD0022908D0032903D0FFF790FB53
:1056D0008D200DE0284600F0A5F9284600F090F84E
:1056E000FFF786FB2670012070BDFFF781FB872046
:1056F0002070002070BD00001600002001480068E6
:10570000FFF77ABC6400002070B5054600780C46AF
:10571000642801D0892003E01348007810B18B2061
:1057200008701FE0FFF74EFB95F82510B1B1002679
:1057300001290AD0022908D0032903D0FFF758FB1A
:105740008D200EE0284600F06DF90021284600F07B
:1057500007F9FFF74DFB2670012070BDFFF748FBEE
:1057600087202070002070BD160000202DE9F04138
:105770000546007817460E461C46642801D089204D
:1057800003E01E48007810B18B20187034E0FFF75A
:1057900019FB95F8250058B3012824D0022822D0FF
:1057A000032803D0FFF724FB8D2024E0284600F0D7
:1057B00039F9002020708EB18F20032E03D0042EE3
:1057C00005D0842009E06A683AB1A96802E06A68F5
:1057D0001AB139462846904700E02070FFF708FBD1
:1057E0000120BDE8F081FFF703FB8E202070F7E772
:1057F000FFF7FEFA872020700020F2E71600002055
:10580000002180F8251080F82410C16141614160B9
:1058100008A281600262016107490A68C2600860EB
:1058200006490888401E088005490888401C0880F1
:10583000704700003F000000680000205A00002070
:105840005800002070B588B04FF4A0612B4800F0DC
:10585000CDF940212A4800F0C9F92848002200F17A
:1058600040011446642300F8253B521C00F81949F6
:1058700024A540F8141B92B2403140F8205B132A53
:10588000F1D3037080F825401EA1C46001621E4858
:105890001F4904601D480480142008801D491748D2
:1058A00008600120FFF7C2FA1B4D28600020FFF7B7
:1058B000BDFA1A4E06AA1AA130602868FFF714F83C
:1058C00006AA1CA13068FFF70FF8402102910320BF
:1058D000CDE903401C484FF6FD710594CDE9001059
:1058E00000F1FC02112300211848FFF7FDFB07AA75
:1058F00017A11120FFF7F8FC08B070BD601100205F
:10590000601700203F0000005C0000205A000020CB
:105910005800002068000020600000206400002083
:1059200075432F4F532D494920546D724C6F636B53
:105930000000000075432F4F532D494920546D72CC
:105940005369676E616C000060160020AD59000855
:1059500075432F4F532D494920546D7200000000AC
:10596000032280F825200F4A0129126814D081698A
:1059700091B111444161017D0B4A01F0070102EB35
:10598000C10100230A68086042B1C26010618A88C0
:10599000521C8A8003617047C169EAE70122C36033
:1059A000F7E700005C0000206017002008B5DFF872
:1059B0006880DFF868901A4E6A460021D8F8000027
:1059C000FFF7BCFAFFF7FEF93068401C306000F0CA
:1059D0000700022759F8304013E060693168E56834
:1059E00088420DD1204600F01DF894F824000228CA
:1059F0000CD084F82570626812B12046A1689047E7
:105A00002C46002CE9D1FFF7F3F9D5E70121204618
:105A1000FFF7A6FFEFE700006400002060170020FA
:105A20005C00002010B5017D0D4A01F0070102EB7A
:105A3000C10100240B68C268834203D10A602AB105
:105A4000146103E00369DA6002B11361012280F896
:105A50002520C46004618888401E888010BD000035
:105A60006017002070470000F0B50F460546807AA9
:105A70001749085C2C18E47A095D01EBC001CEB22D
:105A8000144951F8264000216762216394F83410CC
:105A9000914384F8341084F8353009070BD40E494B
:105AA00094F83A208B791A438A71343194F839305A
:105AB0000A5C1A430A542946204600F00FF8216A6E
:105AC00019B1204600F01AF8E5613046F0BD00003B
:105AD00070C500084C0900201400002010B590F893
